:100000000C9462000C948A000C948A000C948A0070
:100010000C948A000C948A000C948A000C948A0038
:100020000C948A000C948A000C948A000C948A0028
:100030000C948A000C948A000C948A000C948A0018
:100040000C94EB100C948A000C945B110C943511F9
:100050000C948A000C948A000C948A000C948A00F8
:100060000C948A000C948A000000000023002600F3
:10007000290000000000240027002A0000000000E2
:10008000250028002B0004040404040404040202D4
:100090000202020203030303030301020408102007
:1000A0004080010204081020010204081020000012
:1000B0000008000201000003040700000000000027
:1000C00000001E1211241FBECFEFD8E0DEBFCDBF4F
:1000D00011E0A0E0B1E0E4ECF3E402C005900D9281
:1000E000AC35B107D9F725E0ACE5B1E001C01D9210
:1000F000AE33B207E1F710E0C2E6D0E004C02197CA
:10010000FE010E94FB20C136D107C9F70E94B81238
:100110000C94E0210C940000FC01538D448D252F9C
:1001200030E0842F90E0821B930B541710F0CF9691
:10013000089501970895FC01918D828D981761F0C3
:10014000A28DAE0FBF2FB11D5D968C91928D9F5FDA
:100150009F73928F90E008958FEF9FEF0895FC01B9
:10016000918D828D981731F0828DE80FF11D858D6C
:1001700090E008958FEF9FEF0895FC01918D228DFF
:10018000892F90E0805C9F4F821B91098F73992784
:100190000895FC01A48DA80FB92FB11DA35ABF4F1C
:1001A0002C91848D90E001968F739927848FA68976
:1001B000B7892C93A089B1898C91837080648C93CA
:1001C000938D848D981306C00288F389E02D808179
:1001D0008F7D80830895EF92FF920F931F93CF93AB
:1001E000DF93EC0181E0888F9B8D8C8D98131AC072
:1001F000E889F989808185FF15C09FB7F894EE8959
:10020000FF896083E889F9898081837080648083B5
:100210009FBF81E090E0DF91CF911F910F91FF9000
:10022000EF900895F62E0B8D10E00F5F1F4F0F73A8
:100230001127E02E8C8D8E110CC00FB607FCFACF63
:10024000E889F989808185FFF5CFCE010E94C90038
:10025000F1CFEB8DEC0FFD2FF11DE35AFF4FF08234
:100260009FB7F8940B8FEA89FB8980818062CFCF9A
:10027000CF93DF93EC01888D8823B9F0AA89BB89DD
:10028000E889F9898C9185FD03C0808186FD0DC0C8
:100290000FB607FCF7CF8C9185FFF2CF808185FFE9
:1002A000EDCFCE010E94C900E9CFDF91CF91089533
:1002B00080E791E00E94BD0021E0892B09F420E055
:1002C000822F089580E090E0892B29F00E94580148
:1002D00081110C9400000895833081F028F481305E
:1002E00099F08230A9F008958730A9F08830C9F0DC
:1002F0008430B1F4809180008F7D03C080918000B4
:100300008F7780938000089584B58F7784BD08959A
:1003100084B58F7DFBCF8091B0008F778093B00044
:1003200008958091B0008F7DF9CF1F93CF93DF9315
:10033000282F30E0F901E255FF4F8491F901E6568C
:10034000FF4FD491F901EA57FF4FC491CC23A9F094
:10035000162F81110E946C01EC2FF0E0EE0FFF1FB1
:10036000E458FF4FA591B4918FB7F894EC91111117
:1003700008C0D095DE23DC938FBFDF91CF911F9112
:100380000895DE2BF8CFCF93DF9390E0FC01E65683
:10039000FF4F24918A579F4FFC0184918823D1F00D
:1003A00090E0880F991FFC01EE58FF4FA591B49182
:1003B000FC01E458FF4FC591D49161110EC09FB765
:1003C000F8948C91E22FE0958E238C932881E22380
:1003D000E8839FBFDF91CF9108958FB7F894EC9198
:1003E000E22BEC938FBFF6CF3FB7F89480916C016E
:1003F00090916D01A0916E01B0916F0126B5A89BFF
:1004000005C02F3F19F00196A11DB11D3FBFBA2FA6
:10041000A92F982F8827BC01CD01620F711D811D66
:10042000911D42E0660F771F881F991F4A95D1F7EB
:1004300008958F929F92AF92BF92CF92DF92EF92E8
:10044000FF924B015C010E94F4016B017C010E9450
:10045000F4016C197D098E099F09683E734081057E
:100460009105A8F321E0821A9108A108B10888EE4D
:10047000C80E83E0D81EE11CF11C81149104A10474
:10048000B10429F7FF90EF90DF90CF90BF90AF902D
:100490009F908F9008952FB7F894609168017091A4
:1004A000690180916A0190916B012FBF0895AF920D
:1004B000BF92CF92DF92EF92FF920F931F93CF9351
:1004C000DF936C017B018B01040F151FEB015E01B3
:1004D000AE18BF08C017D10759F06991D601ED9148
:1004E000FC910190F081E02DC6010995892B79F7E7
:1004F000C501DF91CF911F910F91FF90EF90DF9099
:10050000CF90BF90AF900895CF93DF93FC01C0814F
:10051000D1810E944B02C61BD70B8D2F881F8827C5
:10052000881FDF91CF9108958EBD00000DB407FEA6
:10053000FDCF8EB50895FC01928183819CBD8DBD58
:1005400081E0878360E085810E9495018FEF0C94A4
:1005500094028FEF0C9494020F931F93CF93DF9329
:1005600000D0CDB7DEB78C010E944B02600F711F27
:100570007A8369830E94A9028F3F71F0CE010196B0
:100580000E9484028823B1F380E00F900F90DF91E6
:10059000CF911F910F91089581E0F7CFCF93DF9313
:1005A000FC012781222349F0EC0161E085810E9452
:1005B00095018FEF0E9494021F82DF91CF910895E1
:1005C0001F93CF93DF93EC0188E592E00E94AC0289
:1005D000182F882361F08DEF0E949402CE010E94B3
:1005E000CE021886812FDF91CF911F9108958FE160
:1005F0008E83CE010E94CE02F5CF0F931F93CF932F
:10060000DF938C01862FEA010E949402FE01819102
:100610008EBDDE5FEC17FD0741F081910000000008
:100620000DB407FEFDCF8EBDF5CF0DB407FEFDCF97
:100630008FEF0E9494028FEF0E9494020E94A90201
:10064000F80181878F71853059F081E28683C80176
:100650000E94CE0280E0DF91CF911F910F9108950B
:1006600081E0F9CFDF92EF92FF920F931F93CF9328
:10067000DF93EC01162F022FF32EE42ED52E0E94CD
:1006800057058823C1F18F81811103C0CE010E94DB
:100690009B02111128C0812F80640E9494028D2D2D
:1006A0000E9494028E2D0E9494028F2D0E9494022B
:1006B000802F0E94940287E8111101C085E90E94F1
:1006C00094020E94A9021AE00E94A902898787FF6A
:1006D00002C01150C9F7DF91CF911F910F91FF9088
:1006E000EF90DF9008951C30B1F28CE291E00E940F
:1006F000AC028111D0CF8FEFEECFAF92BF92CF92ED
:10070000DF92EF92FF921F93CF93DF93EC016A0188
:100710007B0159011F85112309F45EC08885823051
:1007200049F48B859C85AD85BE85C816D906EA0639
:10073000FB0649F18A85A7019601833039F099E0DB
:10074000220F331F441F551F9A95D1F769E1CE013F
:100750000E943203882389F08EE08E83CE010E94AE
:10076000CE0210E0812FDF91CF911F91FF90EF908B
:10077000DF90CF90BF90AF90089582E08887CB86BE
:10078000DC86ED86FE8688E592E00E94AC0281114F
:1007900002C085E2E2CFA5016CEFCE010E94FD020E
:1007A0008823E1F28B859C85AD85BE850196A11DD0
:1007B000B11D8B879C87AD87BE871F851111D2CF56
:1007C000CE01DF91CF911F91FF90EF90DF90CF90FE
:1007D000BF90AF900C94E0028A85833039F089E0B5
:1007E000CC0CDD1CEE1CFF1C8A95D1F7A7019601ED
:1007F00068E1CE010E943203882331F08DE08E83C0
:10080000CE010E94CE02AECFA5016EEFCE010E94B6
:10081000FD028823A9F388E592E00E94AC02F82E3D
:1008200084E2FF2061F320E030E0A9016DE0CE0119
:100830000E943203882311F08AE0E1CF0E94A902CE
:100840008111FACFCE010E94CE021F2D8BCFEF92E5
:10085000FF921F93CF93DF93FC01208111E020FFD3
:1008600012C0EC017C01FBE0EF0EF11C4B815C81BE
:100870006D817E81970189819A810E947D03182F65
:10088000811108C010E0812FDF91CF911F91FF905F
:10089000EF900895888181FD04C088818E7F8883D0
:1008A000F2CF4B815C816D817E818F819885A98596
:1008B000BA85480F591F6A1F7B1F970189819A814A
:1008C0000E947D038111E9CFDDCFCF93DF93EC014F
:1008D000188620E030E0A9016CE00E9432038823F2
:1008E00049F089E08E83CE010E94CE0280E0DF9144
:1008F000CF910895CE010E94CE0281E0F8CFAF9251
:10090000BF92CF92DF92EF92FF920F931F93CF93FC
:10091000DF9300D0CDB7DEB78C016A017B015901AE
:10092000FC018085813049F483859485A585B68551
:100930008C159D05AE05BF0571F1F8018285A701F3
:100940009601833039F089E0220F331F441F551F71
:100950008A95D1F762E1C8010E9432038823A1F091
:100960008CE0F8018683C8010E94CE0280E00F90DF
:100970000F90DF91CF911F910F91FF90EF90DF903B
:10098000CF90BF90AF90089581E0F8018087C38633
:10099000D486E586F6860E944B02645D7E4F7A839C
:1009A00069830E94A902F80181878F3F41F4CE013B
:1009B00001960E9484028823A1F38EE1D2CF8E3F5C
:1009C00011F089E1CECF8FEF8EBDF501D501A15099
:1009D000BE4F9FEFEA17FB0749F0000000000DB47F
:1009E00007FEFDCF8EB59EBD8193F4CF0DB407FEFB
:1009F000FDCF8EB58C93F80111860E94A9020E944A
:100A0000A902F80183859485A585B6850196A11D67
:100A1000B11D83879487A587B68787858111A7CF66
:100A2000C8010E946504A3CFCF92DF92EF92FF929C
:100A30001F93CF93DF93DC011196ED91FC91EF2B87
:100A400051F490E080E0DF91CF911F91FF90EF9003
:100A5000DF90CF900895122F6A017B01EC018B810A
:100A60009C81AD81BE818C159D05AE05BF0561F0F1
:100A7000CE010E942704882321F312FF0CC01882A4
:100A8000CB82DC82ED82FE8213702881122B1883C8
:100A9000CE010B96D8CF9E01255F3F4FB701A6012F
:100AA00089819A810E947F048111E9CFCACFFC011C
:100AB0002085223011F40C94E002213011F40C94C2
:100AC000650481E008958F929F92AF92BF92CF927A
:100AD000DF92EF92FF920F931F9342305105610511
:100AE000710560F480E01F910F91FF90EF90DF900F
:100AF000CF90BF90AF909F908F900895FC01C08CD5
:100B0000D18CE28CF38CC416D506E606F70650F3BA
:100B1000480159016A018581803229F584899589C6
:100B2000A689B78917E076956795579547951A95E1
:100B3000D1F7480F591F6A1F7B1F23E0CF01809612
:100B40000E941405009771F2CC0CDD1CCC0CDD1C4E
:100B5000F1E0DF228C0D9D1DFC0180829182A2823A
:100B6000B38281E0C0CF803109F0BCCF4489558980
:100B7000668977894D0D511D611D711D23E0CF01DF
:100B800080960E941405009709F4ACCFCC0CDD1CB4
:100B9000F1E0DF22C80ED91EF60111830083E1CFF8
:100BA000CF92DF92EF92FF920F931F93CF93DF9339
:100BB000423051056105710550F48FEFDF91CF91FF
:100BC0001F910F91FF90EF90DF90CF900895FC015F
:100BD000C08CD18CE28CF38CC416D506E606F706E1
:100BE00060F389016A01EC018581803299F584897D
:100BF0009589A689B789E7E07695679557954795D2
:100C0000EA95D1F7480F591F6A1F7B1F22E0CE01DA
:100C100080960E941405009781F2CC0CDD1CCC0C50
:100C2000DD1CF1E0DF228C0D9D1DFC018081918196
:100C3000A281B381488D598D6A8D7B8D48175907E4
:100C40006A077B0730F1F80180839183A283B38325
:100C500081E0B4CF803109F0B0CF448955896689ED
:100C600077894D0D511D611D711D22E0CF018096C8
:100C70000E941405009709F4A0CFCC0CDD1CF1E014
:100C8000DF22C80ED91EF60180819181B0E0A0E07C
:100C9000D1CF80E093CF0F931F93CF93DF93FC01CD
:100CA0002081211106C081E0DF91CF911F910F912A
:100CB0000895EC01828187FF3AC04489558966898D
:100CC00077898681978121E080960E94140500979C
:100CD00029F489818160898380E0E6CFEC81FD8100
:100CE000EF70FF2725E0EE0FFF1F2A95E1F7E80FD1
:100CF000F91F309771F38081853E59F3888187739E
:100D00008387888183FF08C0888D998DAA8DBB8DCC
:100D1000848F958FA68FB78F8C8D9D8DAE8DBF8D57
:100D2000938F828FB58BA48B8A818F778A830E8174
:100D30001F81C80180960E942704882351F2F80180
:100D4000808191810E945705882319F2ACCF4F9280
:100D50005F926F927F928F929F92AF92BF92CF924B
:100D6000DF92EF92FF920F931F93CF93DF93EC01EB
:100D70004A015B014C845D846E847F842881222338
:100D800009F45CC0488959896A897B8948155905E5
:100D90006A057B0581F081149104A104B10469F412
:100DA0001C861D861E861F86888A998AAA8ABB8A07
:100DB0008A818F7D8A8381E046C023FF2CC0888D85
:100DC000998DAA8DBB8D88159905AA05BB05B0F133
:100DD000EE81FF813481375F7501640181E0C81ABB
:100DE000D108E108F108032E04C0F694E794D794E3
:100DF000C7940A94D2F78A8186FF36C08C8D9D8D68
:100E0000AE8DBF8D8C0D9D1DAE1DBF1D8C879D872A
:100E1000AE87BF87C9CF26FFDBCFEE81FF818681FA
:100E2000978125E0880F991F2A95E1F7B0E0A0E0AF
:100E300088159905AA05BB0508F0B6CF4C865D86D6
:100E40006E867F8680E0DF91CF911F910F91FF909A
:100E5000EF90DF90CF90BF90AF909F908F907F905A
:100E60006F905F904F900895DB01CA010197A1092F
:100E7000B10904C0B695A795979587953A95D2F78D
:100E8000C816D906EA06FB0620F0452B462B472B51
:100E900049F527FF22C0848D958DA68DB78D8C874F
:100EA0009D87AE87BF878E01045F1F4FC114D10499
:100EB000E104F10409F478CF4C855D856E857F856A
:100EC00098018E819F810E94D00591E0C91AD108B6
:100ED000E108F108181654F3B1CF8C8D9D8DAE8DBD
:100EE000BF8DDDCFC81AD90AEA0AFB0ADCCF3F92D0
:100EF0004F925F926F927F928F929F92AF92BF922A
:100F0000CF92DF92EF92FF920F931F93CF93DF93D5
:100F100000D000D0CDB7DEB75C01FC01448455841D
:100F20006684778486809780F401C084D184E284CB
:100F3000F384C414D504E604F704C0F47301620119
:100F400010E0FFEFCF1ADF0AEF0AFF0AF401808DED
:100F5000918DA28DB38D8C159D05AE05BF0540F416
:100F6000111132C0C084D184E284F38411E0E9CF4E
:100F70004C145D046E047F0439F19E012F5F3F4FD6
:100F8000B701A601C4010E94D00587FD1DC08823BA
:100F9000C1F289819A81AB81BC81892B8A2B8B2BF1
:100FA00081F6112329F0F401C086D186E286F3860A
:100FB0000FEF1FEF2FEF3FE0B701A601C4010E9422
:100FC0006305382E811118C0312C832D0F900F909E
:100FD0000F900F90DF91CF911F910F91FF90EF90A5
:100FE000DF90CF90BF90AF909F908F907F906F9049
:100FF0005F904F903F900895411451046104710433
:10100000B9F4F501C486D586E686F7868281411457
:10101000510461047104B1F0FFEF4F1A5F0A6F0AC7
:101020007F0A4C145D046E047F0479F08F7B0BC043
:1010300097018601B301A201C4010E9463058111D9
:10104000E0CFC2CF8064F5018283F50182818068A0
:101050008283BBCFFC01848583FF17C084A195A147
:10106000A6A1B7A1448D558D668D778D841B950BF8
:10107000A60BB70B811520E89207A105B10520F05A
:101080008FEF9FE7A0E0B0E0089580E090E0DC0102
:10109000F1CF0C960C944B06E0916301F091640142
:1010A0009FEF90832FE321832FEC228323EF238371
:1010B0002CEF2483958393EC968390E89783808725
:1010C00091879287638794879587DF0117969F01A1
:1010D000225F3F4F80E0A217B30719F09D91892747
:1010E000FACF2EE030E03093600120935F01982F1B
:1010F0009A6A968786958A6A878788EC808B118A98
:101100000895CF93DF93EC01FB01828193819B8350
:101110008A838AE091E09983888384819581A6817E
:10112000B7818C839D83AE83BF8380859185A285A3
:10113000B38588879987AA87BB8780E23C96DE01C2
:101140001C9601900D928A95E1F78AE391E09983CC
:101150008883FB0184A58CA785A596A5A7A5B0A922
:101160008DA79EA7AFA7B8AB81A992A99AAB89AB6F
:1011700083A98BABDF91CF910895089590E080E033
:101180000895CF93DF93EC0188819981009711F046
:101190000E94C81F198218821D821C821B821A821B
:1011A000DF91CF910895FC0180819181009711F02A
:1011B0000C94C81F08950E94BE210F931F93CF93D4
:1011C000DF93EC0188819981009759F02A813B8156
:1011D0002617370730F081E0DF91CF911F910F91F3
:1011E00008958B016F5F7F4F0E940121009759F096
:1011F000998388831B830A832C813D81232B59F794
:10120000FC011082E8CF80E0E7CFEF92FF920F93CE
:101210001F93CF93DF93EC01198218821B821A82ED
:101220001D821C828617970719F1FB01008111812D
:1012300001151105E9F0E480F580B7010E94DD0891
:10124000811109C0CE01DF91CF911F910F91FF90C5
:10125000EF900C94C108FD82EC82B80188819981DD
:10126000DF91CF911F910F91FF90EF900C94D921B6
:10127000DF91CF911F910F91FF90EF900895EF9222
:10128000FF920F931F93CF93DF93EC011982188283
:101290001B821A821D821C826115710521F18B014E
:1012A000FB0101900020E9F731977F01E61AF70A68
:1012B000B7010E94DD08811109C0CE01DF91CF91F5
:1012C0001F910F91FF90EF900C94C108FD82EC826A
:1012D000B80188819981DF91CF911F910F91FF9083
:1012E000EF900C94D921DF91CF911F910F91FF9036
:1012F000EF9008952F923F924F925F926F927F925C
:101300008F929F92AF92BF92CF92DF92EF92FF9215
:101310000F931F93CF93DF93CDB7DEB728970FB608
:10132000F894DEBF0FBECDBF9E838D834B015A0163
:10133000DC0112968C9181FF1AC083FD20C0A501AB
:1013400070E060E0ED81FE8180899189A289B38996
:1013500080959095A095B09565011F01FCE02F0E3A
:10136000311C84179507A607B70708F0E0C0ED8188
:10137000FE81818181608183B12CA12C53C0AD811C
:10138000BE8158964D915D916D917C915B97CD0199
:101390000E94A7068111D3CFEACF91018F81988552
:1013A0000E94D00587FDE3CF811103C18D819E810D
:1013B0000E9477078111FDC0DACFED81FE81848D17
:1013C000958DA68DB78D0097A105B10581F4CF014C
:1013D0000E947707882359F2ED81FE8184859585E7
:1013E000A685B785848F958FA68FB78FE2C0ED81D4
:1013F000FE8184879587A687B787DBC021E069C017
:10140000ED81FE81808D918DA28DB38D8415950522
:10141000A605B70538F4408E518E628E738E828198
:1014200080688283C50128960FB6F894DEBF0FBE90
:10143000CDBFDF91CF911F910F91FF90EF90DF9083
:10144000CF90BF90AF909F908F907F906F905F9064
:101450004F903F902F900895EF81F88542505109A9
:1014600061097109848104C0440F551F661F771FED
:101470008A95D2F780899189A289B389480F591F2B
:101480006A1F7B1F80E092E0801B910B76018C1518
:101490009D0508F47C010115110509F0AFCFAD8160
:1014A000BE8150964D905D906D907C90539758966C
:1014B0008D919D910D90BC91A02D481659066A06FC
:1014C0007B0630F4AD81BE8112968C9185FF96CF5C
:1014D00025E0CF0180960E941405009709F447CFBC
:1014E000A701B401800F911F0E94D0210E0D1F1D76
:1014F0000115124051F4ED81FE818681978180961D
:101500000E942704882309F432CFED81FE8180896F
:101510009189A289B3898E0D9F1DA11DB11D808B5C
:10152000918BA28BB38B8E0C9F1CCE18DF08ED81A4
:10153000FE814088518862887388C114D10409F4FF
:101540005FCF8681978198878F83DC011396FC900B
:10155000B301A20199E076956795579547959A95BD
:10156000D1F7F42282011170F11023C04485558512
:10157000668577850115110509F06ECF4115510576
:101580006105710509F419CF228126FF06CF808DF0
:10159000918DA28DB38D481659066A067B0608F018
:1015A000FCCE4F5F5F4F6F4F7F4F448755876687F5
:1015B0007787AD81BE811696ED91FC9117971C96A9
:1015C0004D915D916D917C911F9742505109610938
:1015D0007109848104C0440F551F661F771F8A95C7
:1015E000D2F780899189A289B389840F951FA61F9C
:1015F000B71FAC01BD014F0D511D611D711D0115BE
:10160000110509F03FCFC114B2E0DB0608F43ACF70
:1016100083A194A1A5A1B6A1481759076A077B0722
:1016200041F410A28FEF9FEFDC0183A394A3A5A345
:10163000B6A3940181A192A10E947D03882309F49D
:1016400096CEE12C82E0F82E60CFCF93DF931F92ED
:10165000CDB7DEB7698341E050E0BE016F5F7F4FD9
:101660000C960E947A090F90DF91CF910895CF9345
:10167000DF931F92CDB7DEB7698341E050E0BE0132
:101680006F5F7F4F04960E947A090F90DF91CF9190
:1016900008950C960C947A094F925F926F927F9204
:1016A0008F929F92AF92BF92CF92DF92EF92FF9272
:1016B0000F931F93CF93DF93EC015B018A018A8123
:1016C00080FFCDC0888183FF16C0888D998DAA8D3B
:1016D000BB8D488959896A897B89841B950BA60B28
:1016E000B70BA80170E060E0481759076A077B074D
:1016F000A0F08C0112C086FF10C0EE81FF818681B0
:10170000978155E0880F991F5A95E1F72889398903
:10171000821B930B8017910760F378012E018CE0F8
:10172000480E511C612C42E0742EE114F10409F4BE
:10173000C3C0488959896A897B89EE81FF814A0142
:1017400081E098222881DB01CA0139E0B695A7958E
:10175000979587953A95D1F726FF29C0448D558DE9
:10176000668D778D480F591F6A1F7B1FEE81FF81A1
:101770008114910409F079C0E11482E0F80608F4BC
:1017800074C083A194A1A5A1B6A1481759076A07FF
:101790007B0709F46AC0950181A192A10E947F0490
:1017A000882309F45CC0C12C82E0D82E74C0D38099
:1017B000D8228114910481F4D1100EC0452B462B00
:1017C000472B81F527FF29C0848D958DA68DB78D78
:1017D0008C879D87AE87BF87EE81FF814C855D85B5
:1017E0006E857F854250510961097109848104C069
:1017F000440F551F661F771F8A95D2F780899189FC
:10180000A289B389840F951FA61FB71FAC01BD0124
:101810004D0D511D611D711DA9CF8C8D9D8DAE8DFE
:10182000BF8DD6CF4C855D856E857F8523FF0CC02F
:101830008A8186FF09C04F5F5F4F6F4F7F4F4C8794
:101840005D876E877F87C8CF9201CF010E94D00548
:1018500087FD05C08111C0CF8881807D69F58981B0
:10186000826089838FEF9FEF2AC0C301881999098D
:1018700067018E159F0508F46C0120E0CF0180966A
:101880000E941405009759F3BC01680D791DA6014B
:10189000C5010E94D021AC0CBD1C88899989AA89F8
:1018A000BB898C0D9D1DA11DB11D888B998BAA8BA9
:1018B000BB8BEC18FD0839CFC8018E199F09DF9149
:1018C000CF911F910F91FF90EF90DF90CF90BF903D
:1018D000AF909F908F907F906F905F904F90089502
:1018E000EF92FF920F931F93CF93DF931F92CDB789
:1018F000DEB77C01962FF70140895189628973898F
:101900008A019B0185E036952795179507958A955D
:10191000D1F70F7011F091112BC041E050E0BE01E2
:101920006F5F7F4FC7010E944C0B813051F090E0F8
:1019300080E00F90DF91CF911F910F91FF90EF907A
:101940000895F70180899189A289B3894F96A11DD5
:10195000B11D808B918BA28BB38BF7018681978110
:101960008B96F0E20F9F90011124820F931FE1CF1D
:10197000405E5F4F6F4F7F4F408B518B628B738BFD
:10198000ECCFCF93DF93EC01AB0170E060E085E03A
:10199000440F551F661F771F8A95D1F7CE010E940D
:1019A000A706882331F060E0CE01DF91CF910C943F
:1019B000700C90E080E0DF91CF9108958F929F921C
:1019C000AF92BF92CF92DF92EF92FF920F931F934D
:1019D000CF93DF931F92CDB7DEB78C01FC01848CCF
:1019E000958CA68CB78CC08CD18CE28CF38C41E0AA
:1019F00050E0BE016F5F7F4F0C960E944C0B019729
:101A0000C9F4898190E0F801848E958EA68EB78EF8
:101A1000C08ED18EE28EF38E0F90DF91CF911F9109
:101A20000F91FF90EF90DF90CF90BF90AF909F907D
:101A30008F9008958FEF9FEFE6CFCF93DF931F92A4
:101A4000CDB7DEB741E050E0BE016F5F7F4F0C962F
:101A50000E944C0B019731F4898190E00F90DF9147
:101A6000CF9108958FEF9FEFF9CFFC018081811115
:101A70000EC080E2DF011D928A95E9F777836683C5
:101A8000DB0115968C91803121F0803239F080E0B5
:101A9000089580E4808381E08283089580E8FACF0E
:101AA0002F923F924F925F926F927F928F929F926E
:101AB000AF92BF92CF92DF92EF92FF920F931F935C
:101AC000CF93DF93CDB7DEB7A5970FB6F894DEBFFF
:101AD0000FBECDBF8C014B01FA01DB018C91807DE3
:101AE00011F480E04DC1D8018C918111FACF86812B
:101AF00097810C966DE070E00E94D3206AA38185E7
:101B00008370EE24E3948111E60E2BA35F0140E085
:101B100050E0BA01C4010E94A70619A2712C612CE1
:101B2000F12CF5013A96FDA3ECA3D40150962D902B
:101B30003D904D905C90539760E0C4010E94700C02
:101B4000FC01892B71F22081253E09F446C1222334
:101B500009F44EC16E1408F44EC02E3209F446C189
:101B600055E056944794379427945A95D1F76101DC
:101B700033853F3009F074C0F1103FC0B22FBF7100
:101B80007B2E8AA18B13D1CF26FFCFCF958599A32A
:101B9000F82EB1E07B12C9CF80E2F401DE0111968C
:101BA00001900D928A95E1F7F501808191819383EF
:101BB000828355245394F51408F4B7CFB601CE01AF
:101BC00001960E94C10C009709F410C1D50114962A
:101BD0002D913C91FC0160E06530B8F44181528167
:101BE000D50112962D903C9022163306B1F4452B68
:101BF00009F49BCFFBC0612CB0CF7A942711F6C0BB
:101C00008585A9A18A1729F2F1C06B3018F44481A7
:101C10005581E6CF46815781E3CF4038510508F022
:101C2000E5C08FE9840F8A3108F44052C101019662
:101C3000D50113969C938E931297D1018C919FE9B5
:101C4000980F9A3108F480528413D0C06F5F329697
:101C50006D3009F0C1CF5394B1E0CB1AD108ABCFAE
:101C600033FDC4C0FF2009F4A4C081E0781239CF4D
:101C70009F01255F3F4F90E090FB979597F98191E9
:101C8000980F2E173F07C1F7A9A1A9132ACF80E209
:101C9000D8011D928A95E9F7F40126813781D80190
:101CA00017963C932E9316971596DC92CE92149726
:101CB000448D558D668D778DF801408751876287F9
:101CC0007387F901BB968FE0C822DD2445E0CC0C78
:101CD000DD1C4A95E1F7EC0DFD1D838583FD78C081
:101CE00087738C939385987111F488608C93D801D5
:101CF0001396FC92BBA182E0B13021F081E0B230BA
:101D000009F483E0D80112968C93129712968C9165
:101D1000129781FF07C08C91982F917109F058C0DC
:101D200080628C93D90193964D915D916D917C91D8
:101D30009697D80154964D935D936D937C935797E6
:101D400084899589B0E0A0E0DC0199278827428D3D
:101D5000538D70E060E0482B592B6A2B7B2BD80108
:101D60005C964D935D936D937C935F97848D958D79
:101D7000A68DB78DF801808F918FA28FB38F81E0F0
:101D8000A5960FB6F894DEBF0FBECDBFDF91CF9101
:101D90001F910F91FF90EF90DF90CF90BF90AF9089
:101DA0009F908F907F906F905F904F903F902F907B
:101DB00008954BE050E06CA17DA1CF010E94C321AA
:101DC000892B09F0B2CEF501818580FDAECE5FCFC3
:101DD000D8011C9212961C9284CE6E1438F463942F
:101DE000222309F47ECE253E09F0B7CEF12C9DCEFC
:101DF0006E14A8F376CE2F923F924F925F926F921D
:101E00007F928F929F92AF92BF92CF92DF92EF928A
:101E1000FF920F931F93CF93DF93CDB7DEB7E69773
:101E20000FB6F894DEBF0FBECDBF8C017A012EAB8A
:101E300019821A821B82DC018C91882311F080E0C8
:101E40007DC0FB018081807DD1F3DA018C91FA01A4
:101E50008F3209F467C06E01B6E3CB0ED11C30E2BD
:101E6000732EC701FC01919020E2E22E9E1409F42A
:101E700088C09AA389A318A61FA22DA13EA1FC0188
:101E800050E040E0DF01FD90FF2031F00F2EFFE237
:101E9000EF2EF02DFE1077C058A74FA33EA32DA321
:101EA000415051094F3F510550F67F0180803196D6
:101EB00040E28416D1F3AFE28A16B9F3FE01BB9675
:101EC0005F017192EC15FD05E1F751E0BEE29B1256
:101ED00001C050E0FC010196A081AE32D9F3C901E6
:101EE0000197E817F90720F4DC014C914E32C1F755
:101EF000612C47E0442EA0E0512CB8E03B2EE217C5
:101F0000F30708F0AAC040814E3209F06AC08E176C
:101F10009F0709F06EC04AE0442EA8E0B0E13B2ED6
:101F20003196EDCF7F0181918F32E1F3FB01668124
:101F3000778181111CC0C8010E94350DE6960FB64D
:101F4000F894DEBF0FBECDBFDF91CF911F910F91EF
:101F5000FF90EF90DF90CF90BF90AF909F908F90C9
:101F60007F906F905F904F903F902F900895CE019B
:101F700001960E94350DBE016F5F7F4F81116BCFBF
:101F80005ECFCF016FCFEFE1EF150CF058CFEF2D03
:101F9000E77FE23209F453CFFAE3FF1609F44FCF9B
:101FA000EF2DEF7BEC3309F44ACFE2ECEF0DE2309A
:101FB00008F445CFECE5EE2EFE1409F440CFFD0108
:101FC000E81BF90B0F2EFEE2EF2EF02DFE1439F078
:101FD0006894EE24E5F8FE1411F09D01AF01FD01B7
:101FE00051CF4232A1F04C3791F0B5EAB40FB33083
:101FF00070F0B6EDB40FB63010F44D3241F4B6ECDB
:10200000B40FB63020F0BFEDB40FBE3530F0407CD9
:10201000403809F067C050E083CF4A1648F4BAE070
:102020004B16D1F08E179F07B8F0FC013197F3CF14
:10203000BFE9B40FBA3108F05AC0405263282224D5
:1020400023942A0EAA0DBB2DB11D4C9346E04215D8
:1020500008F029A6A22D64CF50E08BA5803209F4A8
:10206000EECE552321F1562011F082E0682E6AA6AB
:10207000882081F120E0AE014F5D5F4FC8010E94D2
:10208000500D882309F4DBCE80E2F801DE011196C1
:1020900001900D928A95E1F7C8010E944B06D80184
:1020A0001C9212961C92BE016F5F7F4FDACE81E0C8
:1020B0008AA789A590E0F501E80FF91F2EE7208394
:1020C000ACE2B0E0AC0FBD1F8A0F9B1F21E3FC0107
:1020D0002083CECF2EA9AE014F5D5F4FC8010E9475
:1020E000500D2CCF50E04FE54A1608F498CFBFEBC7
:1020F000B40FBA3108F0A3CF5328A1CF0F931F9389
:10210000CF93DF93CDB7DEB7AC970FB6F894DEBFB1
:102110000FBECDBF8C01FB01408151811C821B820F
:1021200088EE93E0A0E0B0E08D839E83AF83B88714
:102130001D861E861F868AE391E09A83898322E0AA
:1021400068E374E0CE010D960E94FB0E8B819C81AA
:10215000F801938382838D819E81AF81B8858483CA
:102160009583A683B78389859A85AB85BC8580874F
:102170009187A287B38780E2FE013D96D8011C9625
:1021800001900D928A95E1F7F8018485882309F181
:1021900083FF1FC084A195A1A6A1B7A10097A105A7
:1021A000B105B9F029E0B695A795979587952A9539
:1021B000D1F785A796A7A7A7B0AB81E0AC960FB6DD
:1021C000F894DEBF0FBECDBFDF91CF911F910F916D
:1021D000089580E0F3CF1F920F920FB60F92112453
:1021E0002F933F938F939F93AF93BF9380916801F9
:1021F00090916901A0916A01B0916B0130916701E2
:1022000023E0230F2D3758F50196A11DB11D209312
:1022100067018093680190936901A0936A01B0936C
:102220006B0180916C0190916D01A0916E01B09154
:102230006F010196A11DB11D80936C0190936D01FA
:10224000A0936E01B0936F01BF91AF919F918F9159
:102250003F912F910F900FBE0F901F90189526E879
:10226000230F0296A11DB11DD2CF1F920F920FB660
:102270000F9211242F933F934F935F936F937F930C
:102280008F939F93AF93BF93EF93FF9380E791E07A
:102290000E94C900FF91EF91BF91AF919F918F91E3
:1022A0007F916F915F914F913F912F910F900FBE52
:1022B0000F901F9018951F920F920FB60F92112436
:1022C0002F938F939F93EF93FF93E0918001F09171
:1022D00081018081E0918601F091870182FD1BC020
:1022E0009081809189018F5F8F7320918A0182177D
:1022F00041F0E0918901F0E0E059FE4F958F809325
:102300008901FF91EF919F918F912F910F900FBEB7
:102310000F901F9018958081F4CFA82FB92F459A60
:1023200055274AE04A9905C05A95E1F74A95D1F7F1
:1023300045C061E04F9B01C0FCCF8AE08A95F1F770
:1023400098E04F9901C007C060FD0EC061E008949D
:10235000000000000EC060FD04C060E08894000032
:1023600008C060E0089405C061E0889400000000A7
:102370000000771F9A9539F08FE08A95F1F70000F9
:1023800000000000DECF7D9394E6613029F04F9984
:1023900008C09A9551F0FBCF4F9B03C09A9529F046
:1023A000FBCF87E08A95F1F7CBCF77277D934598D0
:1023B0004A9B01C0FDCF992788270895459881E061
:1023C00099270895A82FB92F459A4A9901C0FDCFA2
:1023D0007D91703031F198E077FF13C05E9A84E010
:1023E0008A95F1F7000000005E989A9529F0771F12
:1023F0008DE08A95F1F7F0CF8BE08A95F1F7000038
:10240000E7CF9A9539F0771F82E18A95F1F70000BE
:102410000000E2CF80E18A95F1F7000000000000A3
:10242000D7CF459885E04A9B03C08A95D9F703C06A
:10243000992788270895992781E0089510927301BC
:102440001092720188EE93E0A0E0B0E080937401F6
:1024500090937501A0937601B093770188E291E0A3
:10246000909371018093700185EC90E090937D01D1
:1024700080937C0184EC90E090937F0180937E01B7
:1024800080EC90E0909381018093800181EC90E05A
:10249000909383018093820182EC90E09093850178
:1024A0008093840186EC90E090938701809386016D
:1024B0001092890110928A0110928B0110928C0166
:1024C000EAE6F4E048EE53E060E070E08AE391E091
:1024D000138212824483558366837783148615861C
:1024E000168691838083F49625E0EA33F20781F71C
:1024F0001092120210922F0210922E0210922D02B0
:102500008FEF9FEFDC018093300290933102A09314
:102510003202B093330210923804109239041092B0
:102520003A04109259041092580410925B041092CD
:102530005A0480E580935C0410925D0410925E045E
:1025400010925F048AE280936004109261041092FA
:102550006204109263041092640410926504109255
:10256000660410926704109268041092690408953A
:10257000CF93DF93CDB7DEB7C856D1090FB6F89425
:10258000DEBF0FBECDBF789484B5826084BD84B5B4
:10259000816084BD85B5826085BD85B5816085BD5E
:1025A00080916E00816080936E0010928100809116
:1025B000810082608093810080918100816080939E
:1025C0008100809180008160809380008091B100C3
:1025D00084608093B1008091B00081608093B000EE
:1025E00080917A00846080937A0080917A00826082
:1025F00080937A0080917A00816080937A00809144
:102600007A00806880937A001092C1008FEF88B9B9
:1026100087B915B880EC8BB91AB880E880BF90E014
:1026200080E00E94862090E0909362018093610197
:102630008F3F910521F41092620110926101809107
:1026400061019091620164E070E00E94E720909344
:1026500062018093610160E081E10E94C3013B98C7
:1026600010925E041092610410926204109263044E
:1026700010926404109260048AE080935F0461E029
:102680000E94C30161E080915F040E94950182E590
:1026900080935C0410925D041FB7F89480915C01F4
:1026A000811127C0E0E9F0E08491E4EAF0E0949140
:1026B000E82FF0E0EE0FFF1FEE58FF4FA591B49109
:1026C000EC91E92321F461E08AE00E94950161E048
:1026D0008AE00E94C3018CB580618CBD8CB580649A
:1026E0008CBD61E08DE00E94C30161E08BE00E943F
:1026F000C30180915C018F5F80935C011FBF81E00B
:1027000080935E0480916104811104C08AE594E0A5
:102710000E949B0261E080915F040E9495011AE093
:102720000E94A9021150E1F760E080915F040E94CD
:1027300095010E944B026053784F7A83698320E0B1
:1027400030E0A90160E08AE594E00E943203813024
:1027500009F47CC0CE0101960E948402882379F39B
:1027600081E0809360048AE594E00E94CE028AE5CD
:1027700094E09093590480935804109160041111CF
:102780006EC190930E0280930D021092120241E0EE
:1027900050E060E070E040931502509316026093A1
:1027A00017027093180290932F0280932E021092BA
:1027B0002D028FEF9FEFDC01809330029093310266
:1027C000A0933202B093330220E040E050E0BA011F
:1027D0008DE292E00E941405009709F440C1FC01CB
:1027E000E254FE4F2481222309F439C120812F773E
:1027F00009F035C18A539E4FDC01CD90DD90ED90FC
:10280000FC90B701A6018DE292E00E941405FC0144
:10281000892B09F424C18089823009F020C1838585
:1028200094858115924009F01AC1958590930F0205
:102830008FEF890F8093100281E0981709F477C019
:102840001F5F193009F48CC2880FF7CF2AEA31E0F4
:1028500040E050E068E08AE594E00E94320382FFA5
:1028600028C081E08093640480916404C12CD12C41
:102870007601823029F4C12CD12CE12C80E4F82E91
:1028800020E030E0A90167E38AE594E00E9432038A
:10289000A701960169E28AE594E00E943203882349
:1028A000E1F0CE0101960E948402882349F387E17A
:1028B00058CF14E00E94A902809363041150D1F70D
:1028C0008A3A11F482E0CECFCE0101960E948402B2
:1028D000882309F4BBCF86E044CF80916404823022
:1028E000D1F420E030E0A9016AE38AE594E00E9497
:1028F0003203882311F082E134CF0E94A902807C48
:10290000803C19F483E0809364040E94A9020E9431
:10291000A9020E94A9028AE594E00E94CE0280E505
:1029200080935C0410925D041092690420CF109390
:10293000110286899789B0E0A0E0809319029093F4
:102940001A02A0931B02B0931C02892B8A2B8B2B9B
:1029500061F484A195A1A6A1B7A1809319029093D7
:102960001A02A0931B02B0931C028685978546012C
:102970005701880E991EA11CB11C809221029092D1
:102980002202A0922302B09224022189328930933C
:102990001402209313028091190290911A02A091BF
:1029A0001B02B0911C02AC01BD01440F551F661FF4
:1029B000771F480D591D6A1D7B1D409329025093B6
:1029C0002A0260932B0270932C0205E0220F331F22
:1029D0000A95E1F721503E4F232F33272695420FCA
:1029E000531F611D711D40931D0250931E02609381
:1029F0001F027093200283889488B12CA12C81142B
:102A00009104A104B10421F480A091A0A2A0B3A0DC
:102A1000C41AD50AE60AF70AC80CD91CEA1CFB1C22
:102A200004C0F694E794D794C7941A95D2F7B701E7
:102A3000A6014F5F5F4F6F4F7F4F4093250250932A
:102A40002602609327027093280225EFC2162FE01A
:102A5000D206E104F10420F58CE080931202789410
:102A600061E082E10E94C30105E010E0449A6CED50
:102A700075E080E090E00E941902449864E670E0FE
:102A800080E090E00E941902449A6CED75E080E0CD
:102A900090E00E941902449A0150110939F744C08C
:102AA00020E135EFC3163FEFD306E104F10468F0EF
:102AB00044A555A566A577A54093290250932A02FF
:102AC00060932B0270932C0220E2209312028093D9
:102AD000340290933502A0933602B093370288E314
:102AE00094E00E944B061092380410923A046DE074
:102AF00072E088E394E00E94350D882309F4AFCF9B
:102B00008DE092E090935E0180935D01449A64E6CB
:102B100070E080E090E00E941902449864E670E062
:102B200080E090E00E94190268E471E0CE018B5AC7
:102B30009F4F0E943F091C821B821D821E821F82A2
:102B40008CE191E09A83898360915D0170915E01CF
:102B50006115710549F0655D7D4F20E04DE451E060
:102B6000CE0105960E94FB0E8D81DE01D5967D017A
:102B70000AE6C02E04E0D02E01E010E0882309F41C
:102B8000FEC084E690E00E942C1F90936401809325
:102B900063019AE6692E94E0792E24E0322E30E427
:102BA000432E512CA0906301B09064014501CC24C8
:102BB000C394D12C8FEF9FEF8601015011092C2C6B
:102BC0006E96DFAE6E97B4E6CB16D10409F4CCC096
:102BD00041E050E0B701CE0105960E944C0B8130D8
:102BE000910509F0C1C02DA92D3069F3F40121939D
:102BF0004F01FFEFCF1ADF0A2A30F1F6022D6E9651
:102C00001FAD6E97F501E00FF11F1082002351F008
:102C1000202F2150330BF901EA0DFB1D80818A30F2
:102C200009F41082B501C7010E943F09B701C30131
:102C30000E947E10C7010E94D308D3011C962C91DC
:102C40001C9780916301909164012223D9F0080FB1
:102C5000192F111DF80134972081223309F089C002
:102C6000319620812F7D2D3409F083C00250110947
:102C7000F80120812F7D273409F07BC0D2965C9229
:102C80004E92D1972D8140E050E0BA0123FF0CC055
:102C90004D8D5E8D6F8D78A10D891E892F89388DA0
:102CA000401B510B620B730B4115B0E85B076105CC
:102CB000710520F04FEF5FE760E070E0452B31F0E9
:102CC0003A94E4E36E0E711C31106CCF0E94C81F61
:102CD000CE0105960E944B061D821F828DE592E073
:102CE0000E942C1F9093640180936301CE018B5A44
:102CF0009F4F0E94D3081AB85E98789481E090E0C4
:102D00006F969FAF8EAF6F97DE0118966D96BFAF2F
:102D1000AEAF6D972FED339B7CC10E944B026B01D0
:102D20007C0190E080E00E948620837050E040E0CB
:102D300090E064E39A01280F391F23703327629FC4
:102D4000F001639FF00D1124EA58FB4F708171115F
:102D500094C04F5F5F4F4430510561F7912C8EC096
:102D600088E0809311027BCE97FF4CCF0FEF1FEFCF
:102D70004DCFD301D2961C921E92D19783CFBE0124
:102D80006B5A7F4FCE01825B9F4F0E9405094AE03C
:102D9000B701C8010E945120F70101900020E9F716
:102DA0003197EE19FF096496AEACBFAC6497AE0ED6
:102DB000BF1EEF2B69F0B501CE01825B9F4F0E94D1
:102DC000DD08811135C0CE01825B9F4F0E94C10892
:102DD0006496AEACBFAC6497F3E0AF0EB11CB50126
:102DE000CE01825B9F4F0E94DD08811133C0CE016E
:102DF000825B9F4F0E94C108BE01625B7F4FC7018B
:102E00000E940509B701C6010E947E10C7010E94F9
:102E1000D308CE01825B9F4F0E94D3080F5F1F4FE4
:102E200024E3C20ED11C0530110509F0A8CF56CFFE
:102E300060962EAD3FAD609764968EAD9FAD649762
:102E4000B701820F931F0E94D9216496BFAEAEAE28
:102E50006497BECF60962EAD3FAD609764968EAD01
:102E60009FAD649768E571E0820F931F0E94D9219E
:102E70006496BFAEAEAE6497BFCF922EB12CA12C9C
:102E8000412C512C3201BBEA2B2EB0E03B2E14E337
:102E9000812E0E944B026C197D098E099F09603DAD
:102EA00077408105910508F074C0EFEBF0E0849164
:102EB000F1010491E7E9F0E01491112309F456C0FF
:102EC00081110E946C01E12FF0E0EE0FFF1FE85925
:102ED000FF4FA591B4918C91082391E080E009F413
:102EE00090E0092F182FA016B10621F00E944B0286
:102EF0002B013C010E944B02641975098609970950
:102F0000633371058105910578F1A7962EAD3FAD2C
:102F1000A7972017310741F10130110509F50E94EB
:102F20004B026B017C01892D90E0019683709927FB
:102F300050E040E09A01280F391F23703327829E0A
:102F4000F001839EF00D1124EA58FB4F608161115E
:102F500010C04F5F5F4F4430510561F7912C0AC09C
:102F6000A7961FAF0EAFA797580193CF10E000E0D0
:102F7000BACF922E449A64E670E080E090E00E941E
:102F80001902449881E090E0A7969FAF8EAFA79773
:102F9000EBCF692D90E080E00E948E20A92CB12C0F
:102FA000E6E4CE2EE5E0DE2EF12CE12C10E000E090
:102FB000A016B1068CF0449A68EC70E080E090E0D6
:102FC0000E941902449864E670E080E090E00E945C
:102FD00019020F5F1F4FECCF68E572E080E090E0D0
:102FE0000E94190206E714E0D8018C91882349F069
:102FF000C8010E944B06C8010E944B06F8011082CE
:1030000012820C5C1F4FC016D10671F7F7010995AB
:10301000CDCF27B989B190E09595879595958795FE
:103020008F708C3020F58A3030F5853009F073CE02
:1030300089B190E095958795959587958F7099279B
:103040000597B1F3109296041092CA041092FE04F0
:103050001092320584E090E09093660180936501C0
:1030600021E030E06F963FAF2EAF6F9753CE8E507A
:10307000823008F050CEF8948FEF87B980916301C9
:10308000909164010E948D11882311F0789442CEB2
:1030900078940091630110916401D8011E968C917F
:1030A000853809F459C0E0906101F090620130E088
:1030B00020E0F0E0E0E044E0C42ED12C54E3B52E53
:1030C000C9018E0D9F1DB6010E94E720B89EA00188
:1030D000B99E500D112446595B4FDA019C969C9184
:1030E000D80116968C91981331962F5F3F4F24305C
:1030F000310531F73093660120936501349761F50E
:1031000064E670E080E090E00E9419028FED87B9DC
:1031100045983599FECFE0916301F0916401868571
:10312000823879F050F4803808F4F4CD359BFECF26
:103130003599FECF359BFECFEDCD833809F0EACD32
:10314000F5CF359BFECF3599FECF359BFECF359918
:10315000FECF359BFECFDECD459889B1682F6470D8
:1031600082FDFBCFE0916301F091640116818685B9
:10317000833809F412C608F0B0C0813809F42DC3B1
:1031800008F07BC4803809F0C5CD449AE091630112
:10319000F0916401C680A496CFAEA4971092660108
:1031A00010926501809165019091660184309105CE
:1031B0000CF0B0CD2091610130916201820F931F1C
:1031C00064E070E00E94E72044E3489F9001499F3B
:1031D000300D1124B90166597B4FDB019C968C910F
:1031E000A496CFACA497C812A3C12A583B4FD901CB
:1031F0008C91882309F49CC10091630110916401B2
:10320000F80183898F77833009F09CC1CE01019644
:103210000E94810888EF8DAB8EA49FA4A8A8B9A8AE
:103220008EAA292C3A2C4B2C55242FAA6501EE246A
:10323000FF24A396CCAEDDAEEEAEFFAEA397C8AE34
:103240008BE089AF83E58AAF9DE49BAF91E49CAFAF
:1032500022E52DAF94E59EAF30E53FAF3FE42196E8
:103260003FAF219722962FAF229723969FAF2397A8
:1032700024968FAF249784E425968FAF259780E21C
:1032800026968FAF269727968FAF279728968FAFD2
:10329000289729968FAF29972A968FAF2A9782E091
:1032A0002B968FAF2B978AE02C968FAF2C9781E0CF
:1032B0002D968FAF2D978FE02E968FAF2E97FE0114
:1032C000F5969F01275E3F4F80E06F012E173F0765
:1032D00009F441C091918927F9CF803C09F4B8C124
:1032E000813C09F47AC2853809F014CD6F96AEADF1
:1032F000BFAD6F97A430B1050CF08DC5CD0101971E
:103300002091610130916201820F931F64E070E0AF
:103310000E94E72024E3289FF001299FF00D11244B
:10332000E659FB4F14A76F96EEADFFAD6F97319640
:103330006F96FFAFEEAF6F9760E8812F0E944C0849
:10334000F89480E48AB980916301909164010E94AD
:10335000E2111AB89BCE22E1C20ED11C380138E12D
:10336000631A7108A9961FAF0EAFA997FE01E25B21
:10337000FF4FBF01685F7F4F9F01A601DA019D915A
:10338000AD01D9019D939D016A177B07B9F7BF0174
:1033900090E050E040E0DB012D91BD014F5F5F4FB9
:1033A00030E0042E02C0359527950A94E2F7B0E884
:1033B000EB2EF12C042E02C0F594E7940A94E2F768
:1033C0002E21922B4730510531F79068A996AEAD6A
:1033D000BFADA99793969C9393979D012C5D3F4F0A
:1033E000AF01495F5F4F91919068D9019D939D0115
:1033F0004E175F07C1F7A996EEADFFADA9973897B5
:10340000A996FFAFEEAFA997F7E0CF1AD108A9961A
:10341000EEACFFACA9976E147F0409F0A7CF982DEE
:10342000969596959072906C222D269526952695C8
:103430002071922BA0962FADA09722952870922BE9
:10344000D8011E969C931E9798EF1F969C931F97EA
:10345000689487F850968C925097689427F8519604
:103460002C925197A0969FADA097906852969C93EE
:1034700052979FEF9C932FE311962C9311972FEC6B
:1034800012962C93129723EF13962C9313972CEFED
:1034900014962C93149715969C93159793EC169667
:1034A0009C93169790E817969C9317972DA51896BE
:1034B0002C93189721E819962C9319971A969C9398
:1034C0001A971B969C931B9794E81C969C931C97A9
:1034D00093E81D969C93F80137969801225F3F4F21
:1034E000E217F30719F091918927FACF2EE030E027
:1034F0003093600120935F01982F9A6AF80193A797
:1035000086958A6A84A788EC85A716A662E370E090
:1035100080E090E00E941902F89480E48AB98091DA
:103520006301909164010E94E2111AB87894449862
:103530008091650190916601019690936601809358
:10354000650130CECE0101960E9481088EA49FA411
:10355000A8A8B9A8FF24EB2CDA2CC92CA501662752
:1035600077278FEFD8018C939FE311969C93119747
:103570009FEC12969C93129793EF13969C9313973C
:103580009CEF14969C93149715968C93159783EC47
:1035900016968C93169780E817968C9317979DA58F
:1035A00018969C93189791E819969C9319971A96D8
:1035B0008C931A971B968C931B9794E81C969C935C
:1035C0001C971D968C931D97282D26952695207265
:1035D000206C8C2D8695869586958071282B842F5E
:1035E00082958870282B1E962C931E9798EF1F9615
:1035F0009C931F97882D806850968C9350978C2DA4
:10360000806851968C935197842F806852968C9342
:10361000892F88258C258427F80137969801225F09
:103620003F4F2E173F0719F091918927FACF2EE0CF
:1036300030E03093600120935F01982F9A6AF8017F
:10364000938B86958A6A848B88EC858B168A64CFE7
:10365000449AE0916301F0916401D6801092660172
:103660001092650164E3C62EEE24EA9470E8F72E0A
:10367000EEE02E2E312C8091650190916601843010
:1036800091050CF047CB2091610130916201820FCE
:10369000931F64E070E00E94E720C89EB001C99EBD
:1036A000700D112466597B4FDB019C968C91D812CA
:1036B0008AC00091630110916401F80185898F77B8
:1036C000833009F474C0CE0101960E9481084EA592
:1036D0005FA568A979A9BB27A72F962F852F2B0156
:1036E00066247724872E9924AA24BB24F801E0823B
:1036F0002FE321833FEC328323EF23833CEF34839A
:10370000E58223EC2683F7822DA5208731EC3187D3
:10371000F286F38625E82487F586E42FE695E6957C
:10372000E072940155E0359527955A95E1F724709C
:10373000E22BE06C282F2695269526952071E22B0A
:10374000242D229528702E2BF801268728EF278715
:10375000342F3068308B382F3068318B342D3068FF
:10376000328B382D3068338B842784258825822737
:1037700037969801225F3F4FE217F30719F09191B6
:103780008927FACF3092600120925F01982F9A6AC0
:10379000D80154969C93549786958A6A55968C9333
:1037A000559788EC56968C93569757961C92F8949A
:1037B000B0E4BAB980916301909164010E94E21172
:1037C0001AB87894449880916501909166010196A9
:1037D00090936601809365014ECF40882489338998
:1037E0001092660110926501512CC20143E0880FCE
:1037F000991F4A95E1F7807899273F77832B54E00A
:10380000440C551C5A95E1F7E0E84E2255242F77D9
:10381000422A542C4424712C612C480E591E611CE0
:10382000711C79E0440C551C661C771C7A95D1F705
:10383000E4E02E2E312CF4E3CF2EDD24DA9400E8E0
:103840008091650190916601843091050CF062CA07
:103850002091610130916201820F931FB1010E949A
:10386000E720C89EF001C99EF00D1124E659FB4FD8
:1038700084A51813F8C0449A80916501909166015F
:103880002091610130916201820F931FB1010E946A
:10389000E720C89E9001C99E300D1124C9018A58A5
:1038A0009B4F5C0126593B4FD901D1968D919C913C
:1038B000B301A201480F591F611D711DC5010E946E
:1038C000A706E0906301F090640140E052E0B70188
:1038D000C5010E944C0B97013E5FF701912CE21746
:1038E000F30719F081919826FACFB70167507E4F00
:1038F00097012F5A3D4F5701B9E0AB0EB11C87E03D
:10390000FB01DE01119601900D928A95E1F7FE010F
:103910003196DF01812C50E040E08D914F5F5F4F89
:1039200090E0042E02C0959587950A94E2F7A5963B
:103930009FAF8EAFA59780E890E0042E02C09595CA
:1039400087950A94E2F7A1969FAF8EAFA197A496B0
:103950008FADA497A0969FADA0978923882A473062
:103960005105D9F6D9011197882D80688C93D9011A
:10397000819180688D936D968EAD9FAD6D978E17FA
:103980009F07B1F767507109285031092A153B0587
:1039900009F0B5CFD7019C91892F869580748068F6
:1039A0001E968C931E9790681F969C931F97DC928F
:1039B000EFE31196EC931197FFEC1296FC9312979C
:1039C00023EF13962C9313973CEF14963C93149784
:1039D0001596DC92159783EC16968C93169717968E
:1039E0000C93179718961C93189782E819968C9346
:1039F00019971A960C931A971B960C931B9781E8AC
:103A00001C968C931C9789EC1D968C93F701379626
:103A10009701225F3F4F2E173F0719F0819198269B
:103A2000FACFAEE0B0E0B0936001A0935F01F70180
:103A3000E85AFD4F892D8A6A80833196892D8695B3
:103A40008A6A8083319688EC808331961082F8945C
:103A500080E48AB980916301909164010E94E2112F
:103A60001AB8789444988091650190916601019606
:103A70009093660180936501E3CE109266011092E7
:103A8000650184E0A82EB12C94E3592E99249A94D0
:103A90008091650190916601843091050CF03AC9DE
:103AA0002091610130916201820F931FB5010E9444
:103AB000E720589EF001599EF00D1124E659FB4F66
:103AC00084A518135FC1E0916301F09164014089FE
:103AD00050E023892F77CA01A3E0880F991FAA9588
:103AE000E1F780789927822B24892F77B4E0440F5F
:103AF000551FBA95E1F740785527422B542F44279C
:103B000070E060E06A017B01C80ED91EE11CF11C67
:103B1000A396CCAEDDAEEEAEFFAEA397F89497B809
:103B200080916301909164010E948D118111F8CF01
:103B30007894459889B1082F047082FDFBCF80915D
:103B4000630190916401DC011B964C911B974F77A8
:103B50001C96AC912A2EE89427F8FC0136963C017D
:103B60009C01235F3F4F812CE217F30719F051911D
:103B70008526FACFEDE0F0E0F0936001E0935F017D
:103B8000FC01E95AFD4F20812575322E3196408087
:103B9000440CF42DFA7A4F2EFC0170E060E050E006
:103BA000641775070CF447C07C012FEFE21AF20A84
:103BB000BC01D12CC12C222D30E0A9963FAF2EAFF5
:103BC000A997A9962EAD3FADA997C216D3060CF0C2
:103BD00042C028E0FB013F96DE01119601900D9254
:103BE0002A95E1F7E981AE2FB0E0A596BFAFAEAF61
:103BF000A597FE013296D70150E040E04F5F5F4F3E
:103C00002190A5962EAD3FADA597042E01C0220FA1
:103C10000A94EAF72078E89427F822292D93473070
:103C2000510561F7BFEFCB1ADB0AE7E0EE0EF11C9E
:103C3000685F7F4FC6CF6F5F7F4FDC011D962C9171
:103C4000062E01C0220F0A94EAF7207836853F77C6
:103C5000232B2193A5CF9E5F8615970529F0D301CD
:103C60002D913D018226F8CFE0E0F2E0F093600173
:103C7000E0935F01432880E0841086E0D82E811114
:103C80003EC0449A80916501909166012091610146
:103C900030916201820F931FB5010E94E720589E68
:103CA0009001599E300D1124C9018A589B4F7C0107
:103CB000A3964CAD5DAD6EAD7FADA397E9E0440F2B
:103CC000551F661F771FEA95D1F726593B4FD9013B
:103CD000D1968D919C91480F591F611D711DC7018F
:103CE0000E94A706609163017091640140E052E078
:103CF000C7010E947A09892B11F456E0D52EE09174
:103D00006301F09164019082BFE3B1832FECC22E76
:103D1000C28233EFE32EE3824CEFF42EF4829582DD
:103D200023EC268390E89783108781E88187928728
:103D30008D2D8068838794879587DF0117969F0173
:103D4000225F3F4FA217B30719F08D910827FACFD2
:103D50008EE090E09093600180935F01802F8A6AEB
:103D6000868706950A6A078788EC808B118AF89403
:103D700080E48AB980916301909164010E94E2110C
:103D80001AB87894449880916501909166010196E3
:103D900090936601809365017BCE1092660110922C
:103DA000650184E0E82EF12C04E390E4D92E8091A3
:103DB0006501909166018430910514F00C948A1687
:103DC0002091610130916201820F931FB7010E941F
:103DD000E720089FF001099FF00D1124E659FB4FE1
:103DE00084A518130EC060E8812F0E944C08F89437
:103DF000DAB880916301909164010E94E211789495
:103E00001AB88091650190916601019690936601C0
:103E100080936501CCCF6F962EAD3FAD6F97243068
:103E2000310509F08ACA809161019091620103967F
:103E3000B9010E94E72024E3289FF001299FF00D9B
:103E40001124E659FB4F14A76FEF85E090E06F96C1
:103E50009FAF8EAF6F9771CA0F931F93CF93DF936E
:103E60008230910510F482E090E0E0913C05F09101
:103E70003D0530E020E0B0E0A0E0309799F4211556
:103E8000310509F44AC0281B390B24303105D8F517
:103E90008A819B816115710589F1FB01938382837E
:103EA000FE0111C0408151810281138148175907D9
:103EB000E0F04817590799F4109761F012960C93A7
:103EC000129713961C933296CF01DF91CF911F91D9
:103ED0000F91089500933C0510933D05F4CF2115F3
:103EE000310551F04217530738F0A901DB019A015F
:103EF000BD01DF01F801C1CFEF01F9CF90933D057E
:103F000080933C05CDCFFE01E20FF31F8193919387
:103F10002250310939832883D7CF20913A05309137
:103F20003B05232B41F42091020130910301309392
:103F30003B0520933A0520910001309101012115A4
:103F4000310541F42DB73EB7409104015091050170
:103F5000241B350BE0913A05F0913B05E217F3077E
:103F6000A0F42E1B3F0B2817390778F0AC014E5FE9
:103F70005F4F2417350748F04E0F5F1F50933B05E6
:103F800040933A05819391939FCFF0E0E0E09CCF7E
:103F9000CF93DF930097E9F0FC01329713821282EE
:103FA000A0913C05B0913D05ED0130E020E0109777
:103FB000A1F420813181820F931F20913A05309125
:103FC0003B052817390709F061C0F0933B05E093E2
:103FD0003A05DF91CF910895EA01CE17DF07E8F5A2
:103FE0004A815B819E0141155105B1F7E901FB83CF
:103FF000EA8349915991C40FD51FEC17FD0761F46D
:10400000808191810296840F951FE90199838883AD
:10401000828193819B838A83F0E0E0E012968D9108
:104020009C9113970097B9F52D913C911197CD0173
:104030000296820F931F20913A0530913B05281775
:10404000390739F6309751F510923D0510923C052D
:10405000B0933B05A0933A05BCCFD383C283408184
:104060005181840F951FC817D90761F44E5F5F4FC8
:1040700088819981480F591F518340838A819B8190
:10408000938382832115310509F0B0CFF0933D056C
:10409000E0933C059ECFFD01DC01C0CF138212826C
:1040A000D7CFBB274A3031F4992322F4BDE2909553
:1040B00081959F4F0C945D20BB27FB015527AA27B4
:1040C000880F991FAA1FA41710F0A41B83955051A5
:1040D000B9F7A05DAA3308F0A95DA193009779F71D
:1040E000B111B1931192CB010C947620DC01FC014B
:1040F000672F71917723E1F7329704C07C916D931C
:1041000070836291AE17BF07C8F30895F999FECF87
:1041100092BD81BDF89A992780B50895262FF99907
:10412000FECF1FBA92BD81BD20BD0FB6F894FA9A9A
:10413000F99A0FBE019608952F923F924F925F9287
:104140006F927F928F929F92AF92BF92CF92DF92A7
:10415000EF92FF920F931F93CF93DF93CDB7DEB70C
:10416000CA1BDB0B0FB6F894DEBF0FBECDBF0994A0
:104170002A88398848885F846E847D848C849B84F7
:10418000AA84B984C884DF80EE80FD800C811B8105
:10419000AA81B981CE0FD11D0FB6F894DEBF0FBE34
:1041A000CDBFED010895AA1BBB1B51E107C0AA1F9B
:1041B000BB1FA617B70710F0A61BB70B881F991FC8
:1041C0005A95A9F780959095BC01CD01089597FB6C
:1041D000072E16F4009407D077FD09D00E94D32053
:1041E00007FC05D03EF4909581959F4F08957095FA
:1041F00061957F4F0895EE0FFF1F0590F491E02D1C
:104200000994B0E0A0E0E7E0F1E20C949E208C017C
:10421000009751F4CB010E942C1F8C01C801CDB72F
:10422000DEB7E0E10C94BA20FC01E60FF71F9C0119
:1042300022503109E217F30708F49DC0D901CD914E
:10424000DC911197C617D70798F0C530D10530F328
:10425000CE0104978617970708F3C61BD70B229742
:10426000C193D1936D937C93CF010E94C81FD6CF89
:104270005B01AC1ABD0A4C018C0E9D1EA0913C0541
:10428000B0913D05512C412CF12CE12C109731F5CA
:1042900080913A0590913B058815990509F05CC01D
:1042A0004616570608F058C0809100019091010110
:1042B000009741F48DB79EB74091040150910501DC
:1042C000841B950BE817F90708F055C0F0933B05E0
:1042D000E0933A05F90171836083A0CF8D919C91A1
:1042E000119712966C90129713967C901397A815BD
:1042F000B90559F56C0142E0C40ED11CCA14DB04A7
:1043000020F1AC014A195B09DA011296159780F089
:104310006282738251834083D9016D937C93E1144F
:10432000F10471F0D7011396FC93EE93129776CFB8
:1043300022968C0F9D1FF90191838083F301EFCFAB
:10434000F0933D05E0933C0569CF4816590608F403
:104350002C017D01D3019ACFCB010E942C1F7C013F
:10436000009749F0AE01B8010E94D021C8010E9417
:10437000C81F870153CF10E000E050CF81E090E0EC
:10438000F8940C94E021FB01DC0104C08D910190B4
:10439000801921F441505040C8F7881B990B0895AB
:1043A000FB01DC0102C001900D9241505040D8F752
:1043B0000895FB01DC0101900D920020E1F70895C2
:0443C000F894FFCF9F
:1043C40000003E05800000000000DB085702BE0824
:1043D400BD08DB08DB08DB0800000000370B5702D0
:1043E400BE08BD0800000000EB0057028C00380135
:1043F400BD009B00AF0000000000250B490BBE0868
:1044040049082A081D0DDE0C5041525400636F6E9A
:0C4414006669672E747874002E706F00CB
:00000001FF
